{
  "_format": "hh-sol-artifact-1",
  "contractName": "HospitalManagement",
  "sourceName": "contracts/HospitalManagement.sol",
  "abi": [
    {
      "inputs": [],
      "stateMutability": "nonpayable",
      "type": "constructor"
    },
    {
      "anonymous": false,
      "inputs": [
        {
          "indexed": true,
          "internalType": "string",
          "name": "bedId",
          "type": "string"
        },
        {
          "indexed": false,
          "internalType": "string",
          "name": "hospitalId",
          "type": "string"
        },
        {
          "indexed": false,
          "internalType": "bool",
          "name": "isAvailable",
          "type": "bool"
        },
        {
          "indexed": false,
          "internalType": "uint256",
          "name": "timestamp",
          "type": "uint256"
        }
      ],
      "name": "BedStatusUpdated",
      "type": "event"
    },
    {
      "anonymous": false,
      "inputs": [
        {
          "indexed": true,
          "internalType": "string",
          "name": "bloodUnitId",
          "type": "string"
        },
        {
          "indexed": false,
          "internalType": "string",
          "name": "bloodGroup",
          "type": "string"
        },
        {
          "indexed": false,
          "internalType": "uint256",
          "name": "quantity",
          "type": "uint256"
        },
        {
          "indexed": false,
          "internalType": "string",
          "name": "hospitalId",
          "type": "string"
        },
        {
          "indexed": false,
          "internalType": "uint256",
          "name": "timestamp",
          "type": "uint256"
        }
      ],
      "name": "BloodUnitRecorded",
      "type": "event"
    },
    {
      "anonymous": false,
      "inputs": [
        {
          "indexed": true,
          "internalType": "string",
          "name": "entityId",
          "type": "string"
        },
        {
          "indexed": false,
          "internalType": "string",
          "name": "entityType",
          "type": "string"
        },
        {
          "indexed": false,
          "internalType": "string",
          "name": "action",
          "type": "string"
        },
        {
          "indexed": false,
          "internalType": "uint256",
          "name": "timestamp",
          "type": "uint256"
        }
      ],
      "name": "TransactionLogged",
      "type": "event"
    },
    {
      "inputs": [
        {
          "internalType": "uint256",
          "name": "",
          "type": "uint256"
        }
      ],
      "name": "allBedIds",
      "outputs": [
        {
          "internalType": "string",
          "name": "",
          "type": "string"
        }
      ],
      "stateMutability": "view",
      "type": "function"
    },
    {
      "inputs": [
        {
          "internalType": "uint256",
          "name": "",
          "type": "uint256"
        }
      ],
      "name": "allBloodUnitIds",
      "outputs": [
        {
          "internalType": "string",
          "name": "",
          "type": "string"
        }
      ],
      "stateMutability": "view",
      "type": "function"
    },
    {
      "inputs": [
        {
          "internalType": "string",
          "name": "",
          "type": "string"
        }
      ],
      "name": "bedStatuses",
      "outputs": [
        {
          "internalType": "string",
          "name": "bedId",
          "type": "string"
        },
        {
          "internalType": "string",
          "name": "hospitalId",
          "type": "string"
        },
        {
          "internalType": "bool",
          "name": "isAvailable",
          "type": "bool"
        },
        {
          "internalType": "uint256",
          "name": "timestamp",
          "type": "uint256"
        },
        {
          "internalType": "bool",
          "name": "exists",
          "type": "bool"
        }
      ],
      "stateMutability": "view",
      "type": "function"
    },
    {
      "inputs": [
        {
          "internalType": "string",
          "name": "",
          "type": "string"
        }
      ],
      "name": "bloodUnits",
      "outputs": [
        {
          "internalType": "string",
          "name": "bloodUnitId",
          "type": "string"
        },
        {
          "internalType": "string",
          "name": "bloodGroup",
          "type": "string"
        },
        {
          "internalType": "uint256",
          "name": "quantity",
          "type": "uint256"
        },
        {
          "internalType": "string",
          "name": "hospitalId",
          "type": "string"
        },
        {
          "internalType": "uint256",
          "name": "timestamp",
          "type": "uint256"
        },
        {
          "internalType": "bool",
          "name": "exists",
          "type": "bool"
        }
      ],
      "stateMutability": "view",
      "type": "function"
    },
    {
      "inputs": [
        {
          "internalType": "string",
          "name": "",
          "type": "string"
        },
        {
          "internalType": "uint256",
          "name": "",
          "type": "uint256"
        }
      ],
      "name": "entityHistory",
      "outputs": [
        {
          "internalType": "string",
          "name": "entityId",
          "type": "string"
        },
        {
          "internalType": "string",
          "name": "entityType",
          "type": "string"
        },
        {
          "internalType": "string",
          "name": "action",
          "type": "string"
        },
        {
          "internalType": "uint256",
          "name": "timestamp",
          "type": "uint256"
        },
        {
          "internalType": "string",
          "name": "dataHash",
          "type": "string"
        }
      ],
      "stateMutability": "view",
      "type": "function"
    },
    {
      "inputs": [],
      "name": "getAllBedIds",
      "outputs": [
        {
          "internalType": "string[]",
          "name": "",
          "type": "string[]"
        }
      ],
      "stateMutability": "view",
      "type": "function"
    },
    {
      "inputs": [],
      "name": "getAllBloodUnitIds",
      "outputs": [
        {
          "internalType": "string[]",
          "name": "",
          "type": "string[]"
        }
      ],
      "stateMutability": "view",
      "type": "function"
    },
    {
      "inputs": [
        {
          "internalType": "string",
          "name": "_bedId",
          "type": "string"
        }
      ],
      "name": "getBedStatus",
      "outputs": [
        {
          "internalType": "string",
          "name": "hospitalId",
          "type": "string"
        },
        {
          "internalType": "bool",
          "name": "isAvailable",
          "type": "bool"
        },
        {
          "internalType": "uint256",
          "name": "timestamp",
          "type": "uint256"
        },
        {
          "internalType": "bool",
          "name": "exists",
          "type": "bool"
        }
      ],
      "stateMutability": "view",
      "type": "function"
    },
    {
      "inputs": [
        {
          "internalType": "string",
          "name": "_bloodUnitId",
          "type": "string"
        }
      ],
      "name": "getBloodUnit",
      "outputs": [
        {
          "internalType": "string",
          "name": "bloodGroup",
          "type": "string"
        },
        {
          "internalType": "uint256",
          "name": "quantity",
          "type": "uint256"
        },
        {
          "internalType": "string",
          "name": "hospitalId",
          "type": "string"
        },
        {
          "internalType": "uint256",
          "name": "timestamp",
          "type": "uint256"
        },
        {
          "internalType": "bool",
          "name": "exists",
          "type": "bool"
        }
      ],
      "stateMutability": "view",
      "type": "function"
    },
    {
      "inputs": [],
      "name": "getCounts",
      "outputs": [
        {
          "internalType": "uint256",
          "name": "bloodUnitsCount",
          "type": "uint256"
        },
        {
          "internalType": "uint256",
          "name": "bedsCount",
          "type": "uint256"
        }
      ],
      "stateMutability": "view",
      "type": "function"
    },
    {
      "inputs": [
        {
          "internalType": "string",
          "name": "_entityId",
          "type": "string"
        }
      ],
      "name": "getEntityHistoryCount",
      "outputs": [
        {
          "internalType": "uint256",
          "name": "",
          "type": "uint256"
        }
      ],
      "stateMutability": "view",
      "type": "function"
    },
    {
      "inputs": [
        {
          "internalType": "string",
          "name": "_entityId",
          "type": "string"
        },
        {
          "internalType": "uint256",
          "name": "_index",
          "type": "uint256"
        }
      ],
      "name": "getEntityTransaction",
      "outputs": [
        {
          "internalType": "string",
          "name": "entityType",
          "type": "string"
        },
        {
          "internalType": "string",
          "name": "action",
          "type": "string"
        },
        {
          "internalType": "uint256",
          "name": "timestamp",
          "type": "uint256"
        },
        {
          "internalType": "string",
          "name": "dataHash",
          "type": "string"
        }
      ],
      "stateMutability": "view",
      "type": "function"
    },
    {
      "inputs": [],
      "name": "owner",
      "outputs": [
        {
          "internalType": "address",
          "name": "",
          "type": "address"
        }
      ],
      "stateMutability": "view",
      "type": "function"
    },
    {
      "inputs": [
        {
          "internalType": "string",
          "name": "_bloodUnitId",
          "type": "string"
        },
        {
          "internalType": "string",
          "name": "_bloodGroup",
          "type": "string"
        },
        {
          "internalType": "uint256",
          "name": "_quantity",
          "type": "uint256"
        },
        {
          "internalType": "string",
          "name": "_hospitalId",
          "type": "string"
        }
      ],
      "name": "recordBloodUnit",
      "outputs": [
        {
          "internalType": "bool",
          "name": "",
          "type": "bool"
        }
      ],
      "stateMutability": "nonpayable",
      "type": "function"
    },
    {
      "inputs": [
        {
          "internalType": "address",
          "name": "_newOwner",
          "type": "address"
        }
      ],
      "name": "transferOwnership",
      "outputs": [],
      "stateMutability": "nonpayable",
      "type": "function"
    },
    {
      "inputs": [
        {
          "internalType": "string",
          "name": "_bedId",
          "type": "string"
        },
        {
          "internalType": "string",
          "name": "_hospitalId",
          "type": "string"
        },
        {
          "internalType": "bool",
          "name": "_isAvailable",
          "type": "bool"
        }
      ],
      "name": "updateBedStatus",
      "outputs": [
        {
          "internalType": "bool",
          "name": "",
          "type": "bool"
        }
      ],
      "stateMutability": "nonpayable",
      "type": "function"
    }
  ],
  "bytecode": "0x608060405234801561001057600080fd5b50600080546001600160a01b03191633179055612226806100326000396000f3fe608060405234801561001057600080fd5b50600436106101005760003560e01c80638da5cb5b11610097578063cd53980c11610066578063cd53980c14610281578063d9e9678c14610289578063f2fde38b146102ad578063f67fcf93146102c257600080fd5b80638da5cb5b14610202578063a248d0f41461022d578063a537389914610242578063bfad47761461025d57600080fd5b806359cb979e116100d357806359cb979e146101885780635a1d3ad9146101a857806361ab66fb146101cb57806377ad8d9a146101de57600080fd5b806333ed41f91461010557806347a077ed146101315780634c9da6d214610154578063547ca2df14610175575b600080fd5b610118610113366004611ab7565b6102e7565b6040516101289493929190611b44565b60405180910390f35b61014461013f366004611b75565b610490565b6040519015158152602001610128565b610167610162366004611ab7565b61072a565b604051908152602001610128565b610144610183366004611c07565b610752565b61019b610196366004611c84565b610a22565b6040516101289190611c9d565b6101bb6101b6366004611cb7565b610ace565b6040516101289493929190611cfc565b61019b6101d9366004611c84565b610e01565b6101f16101ec366004611cb7565b610e11565b604051610128959493929190611d46565b600054610215906001600160a01b031681565b6040516001600160a01b039091168152602001610128565b610235611093565b6040516101289190611da5565b60045460055460408051928352602083019190915201610128565b61027061026b366004611ab7565b61116c565b604051610128959493929190611e07565b6102356113a8565b61029c610297366004611ab7565b611478565b604051610128959493929190611e4c565b6102c06102bb366004611e91565b6115c8565b005b6102d56102d0366004611ab7565b611696565b60405161012896959493929190611eba565b60606000806000806002866040516102ff9190611f14565b90815260200160405180910390206040518060a001604052908160008201805461032890611f30565b80601f016020809104026020016040519081016040528092919081815260200182805461035490611f30565b80156103a15780601f10610376576101008083540402835291602001916103a1565b820191906000526020600020905b81548152906001019060200180831161038457829003601f168201915b505050505081526020016001820180546103ba90611f30565b80601f01602080910402602001604051908101604052809291908181526020018280546103e690611f30565b80156104335780601f1061040857610100808354040283529160200191610433565b820191906000526020600020905b81548152906001019060200180831161041657829003601f168201915b5050509183525050600282015460ff90811615156020808401919091526003840154604080850191909152600490940154909116151560609283015283015191830151908301516080909301519199909850919650945092505050565b6000806001866040516104a39190611f14565b908152604051908190036020019020600581015490915060009060ff166104e75760405180604001604052806005815260200164185919195960da1b815250610508565b604051806040016040528060078152602001661d5c19185d195960ca1b8152505b600583015490915060ff1661055557600480546001810182556000919091527f8a35acfbc15ff81a39ae7d344fd709f28e8600b4aa8c65c6b64bfe7fe36bd19b016105538882611fb9565b505b816105608882611fb9565b506001820161056f8782611fb9565b5060028201859055600382016105858582611fb9565b5042600483015560058201805460ff1916600117905560006105a8888888611871565b90506003886040516105ba9190611f14565b90815260408051918290036020908101832060a0840183528b845282518084018452600580825264189b1bdbd960da1b8285015285840191909152928401869052426060850152608084018590528054600181018255600091825291902083519190920290910190819061062e9082611fb9565b50602082015160018201906106439082611fb9565b50604082015160028201906106589082611fb9565b5060608201516003820155608082015160048201906106779082611fb9565b505050876040516106889190611f14565b60405180910390207fb29e4eba08b8bc86eadb6a89e4af5faf7fb6cb1624f55382186e14bf0c51caf5888888426040516106c59493929190612079565b60405180910390a2876040516106db9190611f14565b60405180910390207f18afe28c5b6c924fdca34f4d6809f6f7e3d1e49a9f79b3c77230d8c9b85ceb1b83426040516107149291906120b6565b60405180910390a2506001979650505050505050565b600060038260405161073c9190611f14565b9081526040519081900360200190205492915050565b6000806002856040516107659190611f14565b908152604051908190036020019020600481015490915060009060ff166107ab576040518060400160405280600781526020016618dc99585d195960ca1b8152506107cc565b604051806040016040528060078152602001661d5c19185d195960ca1b8152505b600483015490915060ff1661081957600580546001810182556000919091527f036b6384b5eca791c62761152d0c79bb0604c104a5fb6f4eb0703f3154bb3db0016108178782611fb9565b505b816108248782611fb9565b50600182016108338682611fb9565b5060028201805485151560ff1991821617909155426003840155600483018054909116600117905560008461088857604051806040016040528060088152602001671bd8d8dd5c1a595960c21b8152506108ab565b60405180604001604052806009815260200168617661696c61626c6560b81b8152505b90506003876040516108bd9190611f14565b90815260408051918290036020908101832060a0840183528a845282518084018452600381526218995960ea1b81840152848301529183018490524260608401526080830184905281546001810183556000928352912082516005909202019081906109299082611fb9565b506020820151600182019061093e9082611fb9565b50604082015160028201906109539082611fb9565b5060608201516003820155608082015160048201906109729082611fb9565b505050866040516109839190611f14565b60405180910390207f76f5e0aaab62abda13987e0e4b1548f780e4c528bcb94566b40dc5a1f4f6f4fa8787426040516109be939291906120f4565b60405180910390a2866040516109d49190611f14565b60405180910390207f18afe28c5b6c924fdca34f4d6809f6f7e3d1e49a9f79b3c77230d8c9b85ceb1b8342604051610a0d929190612119565b60405180910390a25060019695505050505050565b60058181548110610a3257600080fd5b906000526020600020016000915090508054610a4d90611f30565b80601f0160208091040260200160405190810160405280929190818152602001828054610a7990611f30565b8015610ac65780601f10610a9b57610100808354040283529160200191610ac6565b820191906000526020600020905b815481529060010190602001808311610aa957829003601f168201915b505050505081565b60608060006060600386604051610ae59190611f14565b908152604051908190036020019020548510610b3e5760405162461bcd60e51b8152602060048201526013602482015272496e646578206f7574206f6620626f756e647360681b60448201526064015b60405180910390fd5b6000600387604051610b509190611f14565b90815260200160405180910390208681548110610b6f57610b6f612146565b90600052602060002090600502016040518060a0016040529081600082018054610b9890611f30565b80601f0160208091040260200160405190810160405280929190818152602001828054610bc490611f30565b8015610c115780601f10610be657610100808354040283529160200191610c11565b820191906000526020600020905b815481529060010190602001808311610bf457829003601f168201915b50505050508152602001600182018054610c2a90611f30565b80601f0160208091040260200160405190810160405280929190818152602001828054610c5690611f30565b8015610ca35780601f10610c7857610100808354040283529160200191610ca3565b820191906000526020600020905b815481529060010190602001808311610c8657829003601f168201915b50505050508152602001600282018054610cbc90611f30565b80601f0160208091040260200160405190810160405280929190818152602001828054610ce890611f30565b8015610d355780601f10610d0a57610100808354040283529160200191610d35565b820191906000526020600020905b815481529060010190602001808311610d1857829003601f168201915b5050505050815260200160038201548152602001600482018054610d5890611f30565b80601f0160208091040260200160405190810160405280929190818152602001828054610d8490611f30565b8015610dd15780601f10610da657610100808354040283529160200191610dd1565b820191906000526020600020905b815481529060010190602001808311610db457829003601f168201915b50505091909252505050602081015160408201516060830151608090930151919a90995091975095509350505050565b60048181548110610a3257600080fd5b81516020818401810180516003825292820191850191909120919052805482908110610e3c57600080fd5b906000526020600020906005020160009150915050806000018054610e6090611f30565b80601f0160208091040260200160405190810160405280929190818152602001828054610e8c90611f30565b8015610ed95780601f10610eae57610100808354040283529160200191610ed9565b820191906000526020600020905b815481529060010190602001808311610ebc57829003601f168201915b505050505090806001018054610eee90611f30565b80601f0160208091040260200160405190810160405280929190818152602001828054610f1a90611f30565b8015610f675780601f10610f3c57610100808354040283529160200191610f67565b820191906000526020600020905b815481529060010190602001808311610f4a57829003601f168201915b505050505090806002018054610f7c90611f30565b80601f0160208091040260200160405190810160405280929190818152602001828054610fa890611f30565b8015610ff55780601f10610fca57610100808354040283529160200191610ff5565b820191906000526020600020905b815481529060010190602001808311610fd857829003601f168201915b50505050509080600301549080600401805461101090611f30565b80601f016020809104026020016040519081016040528092919081815260200182805461103c90611f30565b80156110895780601f1061105e57610100808354040283529160200191611089565b820191906000526020600020905b81548152906001019060200180831161106c57829003601f168201915b5050505050905085565b60606004805480602002602001604051908101604052809291908181526020016000905b828210156111635783829060005260206000200180546110d690611f30565b80601f016020809104026020016040519081016040528092919081815260200182805461110290611f30565b801561114f5780601f106111245761010080835404028352916020019161114f565b820191906000526020600020905b81548152906001019060200180831161113257829003601f168201915b5050505050815260200190600101906110b7565b50505050905090565b60606000606060008060006001876040516111879190611f14565b90815260200160405180910390206040518060c00160405290816000820180546111b090611f30565b80601f01602080910402602001604051908101604052809291908181526020018280546111dc90611f30565b80156112295780601f106111fe57610100808354040283529160200191611229565b820191906000526020600020905b81548152906001019060200180831161120c57829003601f168201915b5050505050815260200160018201805461124290611f30565b80601f016020809104026020016040519081016040528092919081815260200182805461126e90611f30565b80156112bb5780601f10611290576101008083540402835291602001916112bb565b820191906000526020600020905b81548152906001019060200180831161129e57829003601f168201915b50505050508152602001600282015481526020016003820180546112de90611f30565b80601f016020809104026020016040519081016040528092919081815260200182805461130a90611f30565b80156113575780601f1061132c57610100808354040283529160200191611357565b820191906000526020600020905b81548152906001019060200180831161133a57829003601f168201915b5050509183525050600482015460208083019190915260059092015460ff16151560409182015290820151908201516060830151608084015160a090940151929b919a509850919650945092505050565b60606005805480602002602001604051908101604052809291908181526020016000905b828210156111635783829060005260206000200180546113eb90611f30565b80601f016020809104026020016040519081016040528092919081815260200182805461141790611f30565b80156114645780601f1061143957610100808354040283529160200191611464565b820191906000526020600020905b81548152906001019060200180831161144757829003601f168201915b5050505050815260200190600101906113cc565b805160208183018101805160028252928201919093012091528054819061149e90611f30565b80601f01602080910402602001604051908101604052809291908181526020018280546114ca90611f30565b80156115175780601f106114ec57610100808354040283529160200191611517565b820191906000526020600020905b8154815290600101906020018083116114fa57829003601f168201915b50505050509080600101805461152c90611f30565b80601f016020809104026020016040519081016040528092919081815260200182805461155890611f30565b80156115a55780601f1061157a576101008083540402835291602001916115a5565b820191906000526020600020905b81548152906001019060200180831161158857829003601f168201915b5050505060028301546003840154600490940154929360ff918216939092501685565b6000546001600160a01b0316331461162c5760405162461bcd60e51b815260206004820152602160248201527f4f6e6c79206f776e65722063616e2063616c6c20746869732066756e6374696f6044820152603760f91b6064820152608401610b35565b6001600160a01b0381166116745760405162461bcd60e51b815260206004820152600f60248201526e496e76616c6964206164647265737360881b6044820152606401610b35565b600080546001600160a01b0319166001600160a01b0392909216919091179055565b80516020818301810180516001825292820191909301209152805481906116bc90611f30565b80601f01602080910402602001604051908101604052809291908181526020018280546116e890611f30565b80156117355780601f1061170a57610100808354040283529160200191611735565b820191906000526020600020905b81548152906001019060200180831161171857829003601f168201915b50505050509080600101805461174a90611f30565b80601f016020809104026020016040519081016040528092919081815260200182805461177690611f30565b80156117c35780601f10611798576101008083540402835291602001916117c3565b820191906000526020600020905b8154815290600101906020018083116117a657829003601f168201915b5050505050908060020154908060030180546117de90611f30565b80601f016020809104026020016040519081016040528092919081815260200182805461180a90611f30565b80156118575780601f1061182c57610100808354040283529160200191611857565b820191906000526020600020905b81548152906001019060200180831161183a57829003601f168201915b50505050600483015460059093015491929160ff16905086565b6060600084848460405160200161188a9392919061215c565b6040516020818303038152906040528051906020012090506118ab816118b4565b95945050505050565b604080518082018252601081526f181899199a1a9b1b9c1cb0b131b232b360811b6020820152815182815260608181018452926000919060208201818036833701905050905060005b6020811015611a0c5782600486836020811061191b5761191b612146565b1a60f81b6001600160f81b031916901c60f81c60ff168151811061194157611941612146565b01602001516001600160f81b0319168261195c8360026121a7565b8151811061196c5761196c612146565b60200101906001600160f81b031916908160001a9053508285826020811061199657611996612146565b825191901a600f169081106119ad576119ad612146565b01602001516001600160f81b031916826119c88360026121a7565b6119d39060016121c4565b815181106119e3576119e3612146565b60200101906001600160f81b031916908160001a90535080611a04816121d7565b9150506118fd565b509392505050565b634e487b7160e01b600052604160045260246000fd5b600082601f830112611a3b57600080fd5b813567ffffffffffffffff80821115611a5657611a56611a14565b604051601f8301601f19908116603f01168101908282118183101715611a7e57611a7e611a14565b81604052838152866020858801011115611a9757600080fd5b836020870160208301376000602085830101528094505050505092915050565b600060208284031215611ac957600080fd5b813567ffffffffffffffff811115611ae057600080fd5b611aec84828501611a2a565b949350505050565b60005b83811015611b0f578181015183820152602001611af7565b50506000910152565b60008151808452611b30816020860160208601611af4565b601f01601f19169290920160200192915050565b608081526000611b576080830187611b18565b94151560208301525060408101929092521515606090910152919050565b60008060008060808587031215611b8b57600080fd5b843567ffffffffffffffff80821115611ba357600080fd5b611baf88838901611a2a565b95506020870135915080821115611bc557600080fd5b611bd188838901611a2a565b9450604087013593506060870135915080821115611bee57600080fd5b50611bfb87828801611a2a565b91505092959194509250565b600080600060608486031215611c1c57600080fd5b833567ffffffffffffffff80821115611c3457600080fd5b611c4087838801611a2a565b94506020860135915080821115611c5657600080fd5b50611c6386828701611a2a565b92505060408401358015158114611c7957600080fd5b809150509250925092565b600060208284031215611c9657600080fd5b5035919050565b602081526000611cb06020830184611b18565b9392505050565b60008060408385031215611cca57600080fd5b823567ffffffffffffffff811115611ce157600080fd5b611ced85828601611a2a565b95602094909401359450505050565b608081526000611d0f6080830187611b18565b8281036020840152611d218187611b18565b90508460408401528281036060840152611d3b8185611b18565b979650505050505050565b60a081526000611d5960a0830188611b18565b8281036020840152611d6b8188611b18565b90508281036040840152611d7f8187611b18565b90508460608401528281036080840152611d998185611b18565b98975050505050505050565b6000602080830181845280855180835260408601915060408160051b870101925083870160005b82811015611dfa57603f19888603018452611de8858351611b18565b94509285019290850190600101611dcc565b5092979650505050505050565b60a081526000611e1a60a0830188611b18565b8660208401528281036040840152611e328187611b18565b606084019590955250509015156080909101529392505050565b60a081526000611e5f60a0830188611b18565b8281036020840152611e718188611b18565b951515604084015250506060810192909252151560809091015292915050565b600060208284031215611ea357600080fd5b81356001600160a01b0381168114611cb057600080fd5b60c081526000611ecd60c0830189611b18565b8281036020840152611edf8189611b18565b90508660408401528281036060840152611ef98187611b18565b6080840195909552505090151560a090910152949350505050565b60008251611f26818460208701611af4565b9190910192915050565b600181811c90821680611f4457607f821691505b602082108103611f6457634e487b7160e01b600052602260045260246000fd5b50919050565b601f821115611fb457600081815260208120601f850160051c81016020861015611f915750805b601f850160051c820191505b81811015611fb057828155600101611f9d565b5050505b505050565b815167ffffffffffffffff811115611fd357611fd3611a14565b611fe781611fe18454611f30565b84611f6a565b602080601f83116001811461201c57600084156120045750858301515b600019600386901b1c1916600185901b178555611fb0565b600085815260208120601f198616915b8281101561204b5788860151825594840194600190910190840161202c565b50858210156120695787850151600019600388901b60f8161c191681555b5050505050600190811b01905550565b60808152600061208c6080830187611b18565b85602084015282810360408401526120a48186611b18565b91505082606083015295945050505050565b606081526005606082015264189b1bdbd960da1b608082015260a0602082015260006120e560a0830185611b18565b90508260408301529392505050565b6060815260006121076060830186611b18565b93151560208301525060400152919050565b60608152600360608201526218995960ea1b608082015260a0602082015260006120e560a0830185611b18565b634e487b7160e01b600052603260045260246000fd5b6000845161216e818460208901611af4565b845190830190612182818360208901611af4565b01928352505060200192915050565b634e487b7160e01b600052601160045260246000fd5b80820281158282048414176121be576121be612191565b92915050565b808201808211156121be576121be612191565b6000600182016121e9576121e9612191565b506001019056fea264697066735822122091369358efc39ff4c13e7a6c0ea3e1a54ec8117939ad4c78f63955f7ad7512ba64736f6c63430008130033",
  "linkReferences": {},
  "deployedLinkReferences": {}
}